:1000000001308A00DC290000A01020088316870038
:10001000831287141A30F700F70B0C280000A01089
:100020002008831687008312871008000420201000
:10003000200883168700831207108A110A12152AD6
:1000400004201308203093008316140C031C252869
:1000500083122D0893008316140C031C2C28831282
:1000600004208A110A12182A042013082130930050
:100070008316140C031C392883122D089300831651
:10008000140C031C4028831204208A110A121A2A15
:1000900004201308223093008316140C031C4D28EF
:1000A00083122D0893008316140C031C542883120A
:1000B00004208A110A121D2A0420130823309300F9
:1000C0008316140C031C612883122D0893008316D9
:1000D000140C031C6828831204208A110A12202A97
:1000E00004201308243093008316140C031C752875
:1000F00083122D0893008316140C031C7C28831292
:1001000004208A110A12222A0420130825309300A1
:100110008316140C031C892883122D089300831660
:10012000140C031C9028831204208A110A12252A19
:1001300004201308263093008316140C031C9D28FA
:1001400083122D0893008316140C031CA428831219
:1001500004208A110A12282A042013082730930049
:100160008316140C031CB1288312300893008316E5
:10017000140C031CB828831204200800042020302B
:100180002F07B100310893008316140C031CC528F7
:100190008312B0013008043C031CE52830082D0709
:1001A000F8002E08FA000318FA0A7808840083136E
:1001B0007A1883170008B100310893008316140CD5
:1001C000031CDF288312B00ACA2804208A110A12ED
:1001D000322A042020302F07B10031089300831603
:1001E000140C031CF0288312B0013008043C031CDB
:1001F000102930082D07F8002E08FA000318FA0A13
:100200007808840083137A1883170008B100310836
:1002100093008316140C031C0A298312B00AF528D4
:1002200004208A110A12392A042020302D07AF0039
:100230002F0893008316140C031C1B2983122E080D
:1002400093008316140C031C222983120420080037
:10025000042013083C3093008316140C031C2D2932
:1002600083122D0893008316140C031C3429831267
:1002700004208A110A12592A042013083D309300E1
:100280008316140C031C412983122D089300831636
:10029000140C031C4829831204208A110A125C2AB8
:1002A0003030840083130008031964290530F800F6
:1002B000F701F70B5929F80B58292E30F700F70BE7
:1002C0005F296229800B5629080004201308073093
:1002D00093008316140C031C6A29831213089301DC
:1002E0008316140C031C712983121308B000042018
:1002F0003008F800780EF700F70CF70C0330F7051C
:1003000077080139031988290130F8008A298A29D8
:100310000030F800080004201308E2309300831630
:10032000140C031C902983120420080004202010C0
:100330002008831687008312071413086130930086
:100340008316140C031CA1298312AF01AF08031DEF
:10035000C0292F082D07F8002E08FA000318FA0A02
:100360007808840083137A1883171308930183167F
:10037000140C031CB829831213088000AF0AA629A5
:100380000420201520088316870083120719D92915
:100390007E30B000AC200530B00050216521F80857
:1003A0000319D9292010200883168700831207100B
:1003B0008B218A110A12672A03081F398300FF3034
:1003C000A0009412403083169400203083129400D1
:1003D000A012200883168700831220162008831697
:1003E00087008312A0112008831687001F149F1412
:1003F0001F159F1107309C008313B3308312A10097
:10040000B430A200B530A300B630A4000530A5007A
:10041000A7012130A6008316880183128801831664
:10042000860180308312860016280F30AD00202808
:10043000AD0134283F30AD0048280330AD005C28C2
:10044000AD0170280230AD0084282630AD00982818
:100450007E30B000AC202708AE002608AD000A3080
:10046000AF00BE282708AE002608AD001030AF0050
:10047000E9281130AD000130AE0014211230AD007A
:100480000130AE0014211330AD000130AE00142154
:100490001430AD000130AE0014211530AD00013034
:1004A000AE0014211630AD000130AE001421AD01B4
:1004B00028290130AD003C290230AD00FA30B000EF
:1004C0005021AD0B5E2AAE012830AD0096292808D8
:1004D0008800201520088316870083120719812AB7
:1004E0007E30B000AC200530B00050216521F80806
:1004F0000319812A20102008831687008312071011
:060500008B21632A630059
:02400E00323F3F
:00000001FF
;PIC16F877A
;CRC=0641  CREATED="08-Eki-19 02:06"
