:1000000001308A00E2290000A01020088316870032
:10001000831287141A30F700F70B0C280000A01089
:100020002008831687008312871008000420201000
:10003000200883168700831207108A110A12332AB8
:1000400004201308203093008316140C031C252869
:100050008312390893008316140C031C2C28831276
:1000600004208A110A12362A042013082130930032
:100070008316140C031C3928831239089300831645
:10008000140C031C4028831204208A110A12382AF7
:1000900004201308223093008316140C031C4D28EF
:1000A0008312390893008316140C031C54288312FE
:1000B00004208A110A123B2A0420130823309300DB
:1000C0008316140C031C61288312390893008316CD
:1000D000140C031C6828831204208A110A123E2A79
:1000E00004201308243093008316140C031C752875
:1000F0008312390893008316140C031C7C28831286
:1001000004208A110A12402A042013082530930083
:100110008316140C031C8928831239089300831654
:10012000140C031C9028831204208A110A12432AFB
:1001300004201308263093008316140C031C9D28FA
:100140008312390893008316140C031CA42883120D
:1001500004208A110A12462A04201308273093002B
:100160008316140C031CB1288312390893008316DC
:10017000140C031CB828831204200800042020302B
:100180003B07BD003D0893008316140C031CC528D3
:100190008312BC013C08043C031CE5283C083907D9
:1001A000F8003A08FA000318FA0A78088400831362
:1001B0007A1883170008BD003D0893008316140CBD
:1001C000031CDF288312BC0ACA2804208A110A12E1
:1001D000502A042020303B07BD003D0893008316C1
:1001E000140C031CF0288312BC013C08043C031CC3
:1001F00010293C083907F8003A08FA000318FA0AEF
:100200007808840083137A1883170008BD003D081E
:1002100093008316140C031C0A298312BC0AF528C8
:1002200004208A110A12572A042013083C30930034
:100230008316140C031C19298312390893008316A2
:10024000140C031C2029831204208A110A12592A33
:10025000042013083D3093008316140C031C2D2931
:100260008312390893008316140C031C342983125B
:1002700004208A110A125C2A04201308E230930039
:100280008316140C031C4129831204208A110A12BC
:100290005D2A04201308E13093008316140C031C1C
:1002A0004E298312042008003A308400831300088A
:1002B000031968290530F800F701F70B5D29F80BE1
:1002C0005C292E30F700F70B63296629800B5A2929
:1002D000080004201308B03093008316140C031C8C
:1002E0006E298312BB013A08BD003908BC00BE016B
:1002F0003E083C07F8003D08FA000318FA0A78089F
:10030000840083137A188317800803198929BE0A89
:1003100078293E08F80078083B020318A6293B0814
:100320003907F8003A08FA000318FA0A7808840036
:1003300083137A1883170008BC003C0893008316C7
:10034000140C031CA0298312BB0A73292010200857
:1003500083168700831207144230F700F70BAE298B
:100360000000201020088316870083120710042045
:100370008A110A12692A0420130807309300831691
:10038000140C031CC0298312130893018316140C48
:10039000031CC72983121308B90004203908F80088
:1003A000780EF700F70C0730F705770801390319C5
:1003B000DD290130F800DF29DF290030F8008A113B
:1003C0000A12792A03081F398300FF30A000941213
:1003D000403083169400203083129400A01220082D
:1003E0008316870083122016200883168700831245
:1003F000A0112008831687001F149F141F159F113A
:1004000007309C008313B3308312A100B430A200E4
:10041000B530A300B630A4000530A500B330A60067
:10042000B430A700B530A800B630A9000530AA0046
:100430000130AF00B001B101B201B301B401B501A7
:10044000B601B701B801AC012630AB00AE012130D6
:10045000AD008316880183128801831686018030DF
:100460008312860016280E30B9002028B9013428DE
:100470003F30B90048280330B9005C28B901702822
:100480000230B90084282630B90098287E30B9009F
:10049000AC202E08BA002D08B9000A30BB00BE28D7
:1004A0002C08BA002B08B9001030BB00E928B901AC
:1004B00014290130B90028293C2949210230B9000A
:1004C000FA30BA005421B90B602ABA012F30B900B2
:1004D00069292F08880020152008831687008312B9
:1004E00007197E2A7E30B900AC200530BA005421AD
:1004F000BB29F80803197E2A4921AF0A6430BA00E3
:060500005421652A63008E
:02400E00323F3F
:00000001FF
;PIC16F877A
;CRC=789D  CREATED="27-Eki-19 18:42"
